:100000000C9435000C945D000C945D000C945D0024
:100010000C945D000C945D000C945D000C945D00EC
:100020000C945D000C945D000C945D000C945D00DC
:100030000C945D000C945D000C945D000C945D00CC
:100040000C9492000C945D000C945C010C945D0087
:100050000C945D000C945D000C945D000C945D00AC
:100060000C945D000C945D00A50211241FBECFEF1F
:10007000D8E0DEBFCDBF11E0A0E0B1E0EEE0F9E0F6
:1000800002C005900D92AE30B107D9F711E0AEE095
:10009000B1E001C01D92AE3AB107E1F710E0CAE647
:1000A000D0E004C02297FE010E948104C836D10727
:1000B000C9F70E948B000C9485040C9400000F93E8
:1000C0001F9381E00E943E01BC010BE911E0C801D1
:1000D0000E94F403C80160E071E00E94160382E010
:1000E0000E943E01BC01C8010E94F403C8010E94A5
:1000F0001E0368EE73E080E090E00E94DA001F913A
:100100000F9108958BE991E040E855E260E070E0DE
:100110000E94990108950E9404010E9482000E9499
:100120005F00FDCF1F920F920FB60F9211242F93F5
:100130003F938F939F93AF93BF93809112019091C0
:100140001301A0911401B09115013091160101968F
:10015000A11DB11D232F2D5F2D3720F02D570196A6
:10016000A11DB11D209316018093120190931301DC
:10017000A0931401B093150180910E0190910F018D
:10018000A0911001B09111010196A11DB11D8093A4
:100190000E0190930F01A0931001B0931101BF9134
:1001A000AF919F918F913F912F910F900FBE0F9024
:1001B0001F901895EF92FF920F931F937B018C0174
:1001C0008FB7F8944091120150911301609114017E
:1001D000709115018FBF2FB7F89480911201909103
:1001E0001301A0911401B09115012FBF841B950B31
:1001F000A60BB70BE816F9060A071B0760F71F9155
:100200000F91FF90EF900895789484B5826084BD3B
:1002100084B5816084BD85B5826085BD85B581600A
:1002200085BDEEE6F0E0808181608083E1E8F0E06A
:10023000808182608083808181608083E0E8F0E05B
:10024000808181608083E1EBF0E080818460808345
:10025000E0EBF0E0808181608083EAE7F0E080817C
:1002600084608083808182608083808181608083DC
:100270008081806880831092C10008958F70909172
:1002800002019295990F990F907C982B90937C0086
:1002900080917A00806480937A0080917A0086FD54
:1002A000FCCF2091780040917900942F80E030E0DD
:1002B000282B392BC90108951F920F920FB60F9268
:1002C00011242F933F934F935F936F937F938F935B
:1002D0009F93AF93BF93EF93FF934091C600E0913C
:1002E0009701F0919801CF01019660E870E00E94BB
:1002F0001B049C018091990190919A01281739075C
:1003000039F0E95EFE4F40833093980120939701C6
:10031000FF91EF91BF91AF919F918F917F916F91DD
:100320005F914F913F912F910F900FBE0F901F90B3
:1003300018955F926F927F928F929F92AF92BF9229
:10034000CF92DF92EF92FF920F931F93CF93DF93A1
:10035000EC013A014B01413482E458078FE0680711
:1003600080E078070CF07FC060E874E88EE190E0F0
:10037000A40193010E94500421503040404050405D
:10038000CA01B90122E030E040E050E00E94500490
:1003900059016A01A6019501209530954095509527
:1003A00094E0220F331F441F551F9A95D1F760E048
:1003B00074E284EF90E00E945004CA01B9012FEF6B
:1003C00030E040E050E00E94FC03A40193010E9451
:1003D0005004C90181509F4F181619061CF4522E63
:1003E0005A9403C055245394521A60E079E08DE387
:1003F00090E0A40193010E945004215030404040FD
:100400005040CA01B90122E030E040E050E00E94D3
:100410005004209530954095509583E0220F331F6E
:10042000441F551F8A95D1F760E074E284EF90E095
:100430000E945004CA01B9012FEF30E040E050E0C3
:100440000E94FC03A40193010E945004C901815041
:100450009F4F181619061CF4822F815002C081E0AC
:10046000821B851500F5E885F98581E090E00A8812
:1004700002C0880F991F0A94E2F7808360E079E058
:100480008DE390E0A40193010E945004215030407C
:1004900040405040CA01B90122E030E040E050E065
:1004A0000E94500404C0E885F98510829501EC8112
:1004B000FD813083EE81FF812083EA85FB852081E9
:1004C00041E050E0CA010E8402C0880F991F0A94CF
:1004D000E2F7282B2083EA85FB852081CA010F845F
:1004E00002C0880F991F0A94E2F7282B2083EA851F
:1004F000FB858081088802C0440F551F0A94E2F7EB
:10050000842B8083DF91CF911F910F91FF90EF900B
:10051000DF90CF90BF90AF909F908F907F906F9023
:100520005F900895FC01A085B18521898C9190E0B0
:10053000022E02C0959587950A94E2F780FFF6CFC8
:100540000484F585E02D6083089587E091E0909321
:100550009C0180939B0187E191E090939E018093A1
:100560009D0185EC90E09093A00180939F0184EC25
:1005700090E09093A2018093A10180EC90E0909391
:10058000A4018093A30181EC90E09093A601809355
:10059000A50186EC90E09093A8018093A70184E0E8
:1005A0008093A90183E08093AA0187E08093AB0147
:1005B00085E08093AC0181E08093AD0108950F93B5
:1005C0001F93CF93DF938C01EB0109C02196D801D3
:1005D000ED91FC910190F081E02DC80109956881B1
:1005E0006623A1F7DF91CF911F910F910895EF92AC
:1005F000FF920F931F93CF93DF938C017B01EA014E
:100600000CC0D7016D917D01D801ED91FC91019055
:10061000F081E02DC80109952197209791F7DF918E
:10062000CF911F910F91FF90EF900895DC01ED9114
:10063000FC910280F381E02D099508950F931F939B
:100640008C01DC01ED91FC910190F081E02D6DE0D9
:100650000995D801ED91FC910190F081E02DC80140
:100660006AE009951F910F9108952F923F924F9242
:100670005F926F927F928F929F92AF92BF92CF9232
:10068000DF92EF92FF920F931F93DF93CF93CDB73B
:10069000DEB7A0970FB6F894DEBF0FBECDBF1C012A
:1006A0006A017B01411551056105710549F4DC01C1
:1006B000ED91FC910190F081E02D60E3099554C02B
:1006C000882499245401422E55246624772401E07D
:1006D00010E00C0F1D1F080D191DC701B601A30165
:1006E00092010E942E04F80160830894811C911CE1
:1006F000A11CB11CC701B601A30192010E942E04E6
:10070000C901DA016C017D01C114D104E104F104D5
:10071000F1F681E0E82EF12CEC0EFD1EE80CF91C40
:100720003E010894611C711CD501C4010197A10907
:10073000B1096C01C818D90814C0F601EE0DFF1DEF
:1007400060816A3010F4605D01C0695CD101ED9197
:10075000FC910190F081E02DC10109950894E10818
:10076000F1086E147F0449F7A0960FB6F894DEBF27
:100770000FBECDBFCF91DF911F910F91FF90EF90F2
:10078000DF90CF90BF90AF909F908F907F906F90B1
:100790005F904F903F902F900895EF92FF920F93AC
:1007A0001F93CF93DF93EC017A018B0177FF0FC08A
:1007B000E881F9810190F081E02D6DE209951095B5
:1007C0000095F094E094E11CF11C011D111DCE0177
:1007D000B801A7012AE00E943503DF91CF911F9154
:1007E0000F91FF90EF900895AB01662757FD60953C
:1007F000762F0E94CD030895629FD001739FF00170
:10080000829FE00DF11D649FE00DF11D929FF00DA0
:10081000839FF00D749FF00D659FF00D9927729FD7
:10082000B00DE11DF91F639FB00DE11DF91FBD0162
:10083000CF011124089597FB092E07260AD077FDD2
:1008400004D049D006D000201AF4709561957F4FEE
:100850000895F6F7909581959F4F0895A1E21A2E7D
:10086000AA1BBB1BFD010DC0AA1FBB1FEE1FFF1F54
:10087000A217B307E407F50720F0A21BB30BE40BA4
:10088000F50B661F771F881F991F1A9469F76095EB
:100890007095809590959B01AC01BD01CF010895A5
:1008A00097FB092E05260ED057FD04D0D7DF0AD0BE
:1008B000001C38F450954095309521953F4F4F4F8F
:1008C0005F4F0895F6F790958095709561957F4FED
:1008D0008F4F9F4F0895AA1BBB1B51E107C0AA1F52
:1008E000BB1FA617B70710F0A61BB70B881F991FD1
:1008F0005A95A9F780959095BC01CD010895EE0F0A
:0E090000FF1F0590F491E02D0994F894FFCFAD
:0E090E00200001000000009202DF02F702004C
:00000001FF
